:020000041000EA
:1000000000B5324B212058609868022188439860DF
:10001000D860186158612E4B002199600421596104
:100020000121F02299502B49196001219960352056
:1000300000F044F80222904214D00621196600F024
:1000400034F8196E01211966002018661A6600F04E
:100050002CF8196E196E196E052000F02FF8012189
:100060000842F9D1002199601B49196000215960AB
:100070001A491B48016001219960EB211966A021F2
:10008000196600F012F800219960164914480160C1
:100090000121996001BC002800D000471248134993
:1000A000086003C880F30888084703B5996A0420EC
:1000B0000142FBD001200142F8D103BD02B5186610
:1000C0001866FFF7F2FF186E186E02BD00000240BE
:1000D000000000180000070000035F00212200005C
:1000E000F4000018222000A00001001008ED00E03C
:1000F000000000000000000000000000070B8FD58A
:10010000E865002031230010255300101D23001046
:1001100000000000000000000000000000000000DF
:10012000000000000000000000000000F1230010AB
:10013000000000000000000091230010412E00107C
:1001400049250010492500104925001049250010B7
:1001500049250010492500104925001049250010A7
:100160004925001049250010492500104925001097
:100170004925001049250010492500104925001087
:100180004925001049250010492500104925001077
:100190004925001049250010492500104925001067
:0801A00049250010492500105B
:1001A80002B4714649084900095649008E4402BC08
:1001B8007047C04602B4714649084900095C4900C5
:1001C8008E4402BC7047C04603B4714649084000DB
:1001D8004900095E49008E4403BC7047002934D0A9
:1001E8000123002210B488422CD301242407A14201
:1001F80004D2814202D209011B01F8E7E400A142BE
:1002080004D2814202D249005B00F8E7884201D358
:10021800401A1A434C08A04202D3001B5C08224330
:100228008C08A04202D3001B9C082243CC08A042A1
:1002380002D3001BDC082243002803D01B0901D08D
:100248000909E3E7100010BC704701B5002000F071
:100258000BF802BD0029F8D003B5FFF7C1FF0EBCAB
:100268004243891A1847C0467047C046D0400B0021
:10027800D1409C46203AD3401843524263469340AB
:10028800184370471C2101231B04984201D3000C1A
:1002980010391B0A984201D3000A08391B099842F1
:1002A80001D30009043902A2105C40187047C04607
:1002B8000403020201010101000000000000000027
:1002C800002B11D1002A0FD1002900D1002802D01B
:1002D8000021C943080007B4024802A1401802904F
:1002E80003BDC04685FFFFFF03B4684601B5029809
:1002F80000F0E6FB019B9E4602B00CBC7047C0466E
:100308004A02F8B543024400C50F500A8446480023
:10031800240E000E5F0AC90F9B099209261A8D4206
:1003280000D09EE0002E42DD8021C90400281ED1A5
:10033800002A0AD0661E012C05D19B1801340B42F5
:1003480046D1013C01E0FF2C14D15A0704D00F22FA
:100358001A40042A00D004335A0100D42EE1013493
:100368000026FF2C19D09D4EDB081E4015E0FF2CFF
:10037800EBD00A431B2E01DD0133E6E72020801B6A
:1003880011008240F140501E82410A439B185A01D5
:10039800DBD501340026FF2C1AD1FF23E005DB054D
:1003A8007602760A18403043ED072843F8BD002E40
:1003B8002ED08026011BF604002C14D1002B00D16E
:1003C800F3E04C1E01290AD19B1802243342B8D00D
:1003D800012283491A405B080B401343B5E7FF2904
:1003E80006D11300AEE0FF2800D1E0E00C00334353
:1003F8001B2C02DD531C0400A7E719002026E1404E
:10040800341BA3405C1EA3410B4304009B18BEE7AA
:10041800FE20611C01421ED1002C0DD1002B00D101
:10042800C7E0002A00D190E79B185A0100D48CE756
:100438006C4A13400C0088E7002BD2D0FF24002A16
:1004480000D182E78023DB039F4202D39C4500D280
:100458006746FB0076E00C00FF299ED09B185B08DE
:1004680073E7002E25DD00281CD1002A00D16CE797
:10047800661E012C06D19B1A5A0100D465E79B0120
:100488009E0975E0FF2C00D15FE701211B2E07DCD8
:100498002020801B11008240F140501E82411143F0
:1004A8005B1AE9E7FF2C00D14FE78021C9040A4312
:1004B800EBE7002E25D0051B002C0DD1002B08D012
:1004C8006E1E012D03D10D00D31A0134D4E7FF2D80
:1004D80008D113002C0021E0FF286CD080242E00C6
:1004E800E404234301241B2E07DC2025AD1B1C003C
:1004F800AB40F4405D1EAB411C43131B0D000400D0
:10050800BAE7FE26601C30422DD1002C14D1002BF6
:1005180006D125002600131E00D13EE70D0014E782
:10052800002A00D111E79E1AD31A7001F6D4331E9F
:1005380000D00AE7350030E7002B05D1002A49D062
:1005480013000D00FF2400E7FF24002A00D1FCE679
:100558008023DB039F4200D27BE79C4500D378E7EA
:1005680067460D0075E79E1A700115D50D00D61A5D
:100578003000FFF787FE330005388340844210DCE3
:100588002022001B0130121A19009340C1405A1E44
:10059800934100240B43D8E6002EE9D135003400FE
:1005A800FBE6104A241A1340CFE6130042E7130073
:1005B80021E71300C9E613000400AFE7DE08FF2CAB
:1005C80000D0EAE6002E00D1E7E68023DB03FF2413
:1005D8001E43E2E680261500F603F6E7FFFF7F1FBD
:1005E800FFFFFF7DFFFFFFFBF0B5C30F85B044029F
:1005F80045000F1C640A2D0E039302930AD0FF2DA9
:100608003BD08023E400DB041C4300237F3D01959D
:1006180000930EE0012301940093002C09D02000E0
:10062800FFF730FE431F9C4076235B421B1A019361
:1006380000957D027E006D0A360EFF0F002E23D036
:10064800FF2E2ED08023ED00DB041D4333007F3BBB
:10065800002201980399C31A00987940800010433A
:1006680001380E2823D8FFF7A5FD4D997399929963
:10067800734D4D927361616153000223019500939C
:10068800002CD6D00133C3E72B000122002DE0D087
:100698002800FFF7F7FD431F9D4076235B421B1A96
:1006A800D6E733000222002DD3D00132D1E764010E
:1006B8006D01AC4228D31A200122641B01262700B1
:1006C80052006400002F01DBA54201D8641B3243AD
:1006D80001380028F3D1601E8441144318007F308C
:1006E800002838DD620704D00F222240042A00D0F7
:1006F8000434220103D5803318002B4A1440E5083E
:10070800FE281DDD00250FE01B200022013BD5E758
:100718008023DB031C4203D01D4201D12C00029729
:1007280080250299ED032543FF2009E00399009AEB
:10073800022AE7D0032A2FD000252800012ACDD18C
:100748006D026D0AC0052843C907084305B0F0BD0E
:100758002C003900ECE701220025121A28001B2A78
:10076800EEDC9E3325009C40D540631E9C4125430A
:100778006B0704D00F232B40042B00D004358023B3
:100788002800DB0418401D420BD1ED08D8E780246F
:100798000023E4030293C3E70291C1E70025280080
:1007A800CEE700250120CBE7FFFFFFF7F0B5C30F29
:1007B80085B04702440002917F0A240E03930AD0B1
:1007C800FF2C71D080227F3C26000023FF00D2043A
:1007D800174301930CE001233E1E019308D0380013
:1007E800FFF750FD7626431F9F407642361A019444
:1007F800029B5C025D00DB0F640A2D0E02935AD047
:10080800FF2D64D080232800E400DB041C437F38DC
:1008180000230299039A4A40811901988C46850061
:1008280001311D430A2D00DD78E0022D55DC013D24
:10083800012D63D9250CA4B226003B0CB8B246435F
:100848005C4368436B4300191F00330C1B189C4220
:1008580002D9802040023F181804B6B28619B401A4
:10086800601E84411B0CB60EDB1934439B011C43EC
:100878001B0168D5012360081C40044308007F3031
:10088800002862DD630704D00F232340042B00D027
:100898000434230103D5803108003E4B1C40E50891
:1008A800FE2833DD00254CE0022326000193002FAB
:1008B8009ED001338DE720000123002CA9D0FFF73B
:1008C800E1FC431F9C4076235B42181AA0E72800EE
:1008D8000223002C9DD001339BE70120A840A625C8
:1008E8000600ED002E4028421DD19025AD0028427B
:1008F80047D1B93DFF3D28429CD0029A022BD1D066
:10090800032B42D000252800012BB7D16D026D0AB8
:10091800C0052843D207104305B0F0BD039A0F2D38
:1009280004D00B2DE9D03C00019BE7E78023DB03D3
:100938001F4203D01C4201D12700029A8025ED03F3
:100948003D43FF20E2E7614698E7012300251B1A93
:1009580028001B2BDADC9E3125008C40DD40631E0D
:100968009C4125436B0704D00F232B40042B00D058
:10097800043580232800DB0418401D4207D1ED0808
:10098800C4E780273200FF03D8E72700D6E7002511
:100998000120BBE7FFFFFFF741024300C20F490AEE
:1009A80000201B0E7E2B03DD9D2B02DD084BD0188B
:1009B8007047802000040843952B05DD963B98403E
:1009C800002AF5D04042F3E79621CB1AD840F7E742
:1009D800FFFFFF7F002370B50400984209D0FFF79E
:1009E80051FC9E231B1A962B08DC082829D00838AE
:1009F80084406402D805640A204370BD992B1BDD2E
:100A0800020021001B3291400A00511E8A41052133
:100A1800091ACC40144322000B4D2A40610704D028
:100A28000F212140042900D00432510102D59F230F
:100A38002A401B1AD408DCE7421F0528EBD0944053
:100A4800E9E79623D5E7C046FFFFFFFB9140030087
:100A580090409C46203A9340194352426346D34003
:100A68001943704710B5002903D1FFF70BFC20305C
:100A780002E00800FFF706FC10BDC046F7B5040CFD
:100A88000D0091B20F0061438C460600019383B2BA
:100A9800100C5F43444358433B0C60441B18994275
:100AA80002D9802149026418019955437143180CF1
:100AB80004191B04BFB24919D819091903B0F0BDAC
:100AC800F0B506000F0015001C0085B08B4263D8F6
:100AD80001D1824260D821002800FFF7C3FF390006
:100AE80000903000FFF7BEFF009B21001B1A1A0080
:100AF80028000393FFF7AAFF00900191B94245D857
:100B080001D1B04242D8009B019C01200021039AE8
:100B1800F61AA741FFF79AFF04000D00039B002B6C
:100B28002BD0019B009ADB0750081843019B5908FA
:100B3800039B9C46B9422CD801D1B04229D8320037
:100B48003B00121A8B41012692185B410027B61808
:100B58005F4101235B429C446346002BEAD130008D
:100B68003900039AFFF782FB039AA4197D41060016
:100B78000F00FFF76BFF241A8D410A9B002B01D051
:100B88001E605F602000290005B0F0BD002400252C
:100B9800C4E7B6197F41DCE700240025EDE7000033
:100BA80030B585B000F052F801AC200000F04EFEE0
:100BB800194B1B68834204D04521184804F011FBE7
:100BC800FEE76946207901F0E5FA019B144C597A51
:100BD8001A7A0902114308232200009804F00DFB39
:100BE800051E00D0FEE7009804F006FB02F0F8F9B5
:100BF80001F0AEF801F0BAF8236883F3088885F3AA
:100C08001488BFF36F8FBFF36F8F636898474521D0
:100C1800044804F0E6FAFEE7B80400201A7200104F
:100C2800B00400203D720010002904D0012906D02C
:100C3800162040427047044BC000C058FAE7C00075
:100C4800014B0430F9E7C046FC6E0010C02110B516
:100C58000248490103F0D2F810BDC046E01A00204E
:100C6800F0B5FBB003937F4B3AA81B6814000493BC
:100C780005F0B9FD00213AA803F042FA829B002B47
:100C880007D0839B002B04DD1A0082993AA805F04F
:100C9800B7FD0026637A227A1B021343E27AA17A0F
:100CA80012020A43617B9B18227B09021143A27B33
:100CB800E57B12040A432D061543ED18B54221D8E9
:100CC8000FA93AA805F0E3FD3AA805F092FD849B28
:100CD800002B04D0202218000FA904F04FFB00239A
:100CE80021000093039A604B09A800F0C7F8071E7B
:100CF80018D103980E9C00F0CBFA844212D8012434
:100D0800644233E0819BAF1B9F4200D91F003B0028
:100D18003100809A039804F070FA002806D03AA8A7
:100D280005F067FD4F4B1B68049398E03A008099E3
:100D38003AA805F065FDF619C0E704ABDE89102E68
:100D480031D12D88202DEDD12B00089903983AAA8E
:100D580004F053FA0028E5D12A003AA90FA804F0B4
:100D6800ADF8424B1B688342DCD101270E2304AA4D
:100D780007AD9B1808A92A0009A800F0E5F8002883
:100D8800D0DB69D1089909A804F089F80028D4D1E2
:100D980004ABD8893449364B1A888A42C2D090426B
:100DA800CBD00233F8E7012E35D12B88202BB9D8C8
:100DB800089903983AAA04F020FA041EB2D12E78B2
:100DC800202E9CD82B4B2C4D1B680593059B1FA8E8
:100DD8009C4202DB05F00DFD91E705F004FD0021C2
:100DE8001FA803F08DF96B6829681A681FA805F019
:100DF80007FD17A91FA805F04AFD32003AA917A850
:100E080004F0ADFA0835002803D11FA805F0F1FC5D
:100E1800ACE70134DAE7202EA8D1631CA6D0154B25
:100E28001B68A34200DC6AE780222B8852009342A9
:100E380000D077E7089903983AAA04F0DEF9002869
:100E480000D06FE7E4B22B88310000943AAA0FA8CB
:100E580000F0CCF8049052E7002F00D162E7049824
:100E68007BB0F0BD04000020FFFF0000B8040020A4
:100E7800EC710010046F0010086F0010F0B587B017
:100E880002930CAB1B7806000C0017000393002894
:100E980005D101235B420193019807B0F0BD0029F9
:100EA800F7D0002AF5D04D7A0B7A2D021D434B7BE3
:100EB8000A7B1B0213438A7B380012041A43CB7B3C
:100EC8001B061343ED182900042305AA04F095F91D
:100ED80001900028DDD1E37AA27A1B0204A913430A
:100EE8008988174A914227D104AAD1889942D0D13A
:100EF80004233800491905AA04F07FF90028C8D14D
:100F080005AA104B11889942C3D1029B34603381E2
:100F1800039B7760B372E37AA17A1B020B435B19D8
:100F2800F360E37AA17A52881B020B439B185B1982
:100F3800043573613561AFE7002BE1D0A9E7C046FE
:100F48000869000007690000F0B585B004001700C3
:100F58001D000191002803D10120404205B0F0BDD9
:100F68000368002BF8D04368002BF5D02269636929
:100F78009A4219D22368997ADB7A1B020B4304D070
:100F8800E368934201D10433236104232169606833
:100F980003AA04F032F90028DED1A37A002B05D089
:100FA8002269E3689A4201D30120D7E702AAD188CF
:100FB80023890D4E0A1DB34203D002AEB6889E4265
:100FC8000DD1002D02D003AB1B882B802369019D16
:100FD80004332B60398023699B182361BEE723699A
:100FE8009B182361C2E7C046FFFF0000F0B57A4CAA
:100FF8007A4EA5441F00C8AB1C78336803902CA810
:1010080002930491059205F0A9FB092201212CA85D
:1010180002F0F2FF724BE200D4589B185B68079409
:101028001B6882AAE4182100302307A804F01BFEDD
:10103800002800D0C7E0079B829A9B189C4200D0EA
:10104800C1E021002EAA07A804F01FFE002800D046
:10105800B9E0210030AA07A804F017FE051E00D049
:10106800B1E02EA805F05AF9079B2D909C4200D0BC
:10107800A9E030AB01932A002B0000952EA92CA8DB
:1010880002F074FF002800D09DE02CA802F0CAFFEF
:10109800002800D097E02EA805F040F92D902CA844
:1010A80005F066FB874200D08DE033680293802309
:1010B8005B009F4200D086E0049B202B00D082E09A
:1010C800059982AA2CA802F0D3FF041E7BD1454BB8
:1010D80004AA9B181B78BC2B75D108904AAFDF3542
:1010E80011A805F080FB002111A803F009F83E4B78
:1010F80004A95B181900202211A805F081FB04221D
:1011080008A911A805F07CFB09A911A805F0BFFBE7
:1011180004ABDB7C04AA01332E00D374202D00DD40
:1011280020263800320009A904F028F9BF19AD1BA0
:10113800002DD5DC11A805F05CFB00234AAA82AD7E
:101148001178585D0133414011700132DF2BF7D11E
:101158007F214AAB1A780A401A701D5D002D32D1E2
:101168000134BE2CF9D1EB2304AA5B009B181B7831
:10117800012B28D111A805F036FB290011A802F08F
:10118800BFFF0822194911A805F03AFB039920224C
:1011980011A805F035FBD82104ABFF31C91820226E
:1011A80011A805F02DFB09A911A805F070FB11A8DD
:1011B80005F01FFB0C4B04A95B182022190009A895
:1011C80003F07CFE02902CA805F0D4FA0298C32301
:1011D8009B009D44F0BDC046F4FCFFFF04000020C6
:1011E800086F0010F7020000D702000060720010BC
:1011F800014B584330307047D90200000B78094939
:101208004200C0004058834209D00132920052582F
:1012180005489B1A5A1E93415B421843704702487F
:10122800FCE7C046106F0010D902000010B504009A
:1012380004F01DF8024AA3685043303B181A10BD49
:10124800D90200001FB5104BC000C0580C00C0B236
:1012580000F0A0FF00280BD12068102381686A469F
:10126800103903F0CAFF002805D0206803F0C4FF36
:101278000120404206E010226846044904F06FF855
:101288000028F2D104B010BD106F00100A720010CF
:1012980013B50400FFF7CAFF6A460100200003F0F7
:1012A800E4FD009B002804D04521034803F099FF82
:1012B8000023180016BDC04668720010F0B504007F
:1012C80085B000200D000192FFF7AEFC02A9C0B264
:1012D80000F060FF002806D00125029803F08CFF7B
:1012E800280005B0F0BD2C236B43E418E368278978
:1012F80003AEFF18320004233900029803F07DFF83
:10130800051EE9D10F4B3288648902989A4215D19B
:1013180073889C4201D00325DFE704233200E119DA
:1013280003F06BFF0028D7D1074B32889A42F2D1DD
:101338007388019A1B19DB191360CEE7002CF3D0D0
:10134800E9E7C0460869000007690000F0B53C4FAE
:101358008BB0050000200C003E68FFF765FC08A96B
:10136800C0B200F017FF00281ED12C2363432100D0
:10137800EB180793FFF758FC09A9C0B200F00AFF61
:10138800002814D02C226243A9180E69089BF00685
:101398001ED5002C03D02800089903F029FE294BFC
:1013A8001E68089803F028FF30000BB0F0BD0998BC
:1013B80003F064FF0600099803F01EFF079B1A005C
:1013C80004321978B142DDD101339342F9D1E0E713
:1013D8001D485259824231D10889CA68C543AA4278
:1013E8002CD849891218C843824227D852189968BC
:1013F8008A4223D23000154A104016421ED180225C
:1014080052000192124A010000920490079A039038
:101418000290FFF725FC06000E4B1B68B342C0D0B4
:101428000D4A002C05D008980021826803F009FFB6
:101438000A4A45210A4803F0D4FEB0E73E68EBE7C4
:1014480004000020000000203DB8F3960C0E0000B8
:10145800E0320020B8040020A3720010AB72001024
:10146800B572001001230360024B436000238360C0
:10147800C360704701010001F0B5002785B0040082
:1014880008000D000397029703F06FFDB8423FD0A4
:10149800637822781B021343A278244E12041A435D
:1014A800E3781B061343B34204D13900200003AA92
:1014B800FFF704FF23002C331A7801331B781B0233
:1014C800134322002E32127812041A4323002F33BA
:1014D8001B781B061343B34204D10121200002AA42
:1014E800FFF7ECFE029B039A934200D90393039BF8
:1014F800AB60039A2900200000F032FB0C4B1A68FD
:10150800002A03DD57210B4803F06BFE05B0F0BD40
:1015180001A9FFF797FE29000198083103F0D2FCD2
:10152800AB680198039303F067FEE2E73DB8F396D2
:101538004C180020DD720010F0B58026002485B01C
:10154800019102920393F6000B9B9C4201D3002069
:101558000FE00B9B1D1BB54200D93500039B0B4FB9
:10156800E1183A002B00019803F047FE002802D04A
:10157800012005B0F0BD0A9B3A00E11802982B0043
:1015880003F04DFE0028F3D16419DDE7BC04002008
:10159800F0B50E0000210400A24B8BB04362A24BB1
:1015A80003650800FFF740FB210005002031C0B2A9
:1015B80000F0F0FD002820D10121FFF735FB2100C4
:1015C80005004C31C0B200F0E5FD002820D1200014
:1015D80003F0ABFC25000700583500281AD100227B
:1015E8002000110003F088FC002828D08F48002232
:1015F800572103F0F6FD012393E000238C4C019062
:1016080000932A0000234521200003F0EAFDFEE7AD
:101618000123F3E7F3225721864803F0E2FD012373
:101628002B709F42DBD1287802ABD875013804288B
:1016380000D9ADE0FEF7BEFDB07A7A9AB800200076
:1016480000F026FA0028D6D006A8FFF70BFF2000E6
:1016580006A903F01DFD002801D07748C7E706A8B2
:1016680003F083FC01235840C1B206AA200003F00E
:1016780043FC03900028B9D106A803F076FC071EA6
:101688002AD1200006A9FFF7F7FE02ABDB7D2B70FD
:10169800033B012B06D8380000F0FEF8002801D0E3
:1016A800FF232B7002ABDB7D023B022B0BD8002003
:1016B80000F0DCF8002806D0FF232B7045215F4896
:1016C80003F08FFDFEE72B78FF2BF7D000222000D8
:1016D800110003F011FC8EE702ABDB7D0293012BB6
:1016E80016D1039802F092FE831E0700022B0DD834
:1016F80020000299FFF72AFE514B1B68984205D03B
:10170800504B05271B68984200D1029F2F708AE72B
:1017180001212000FFF71AFE494B1B68984202D0AE
:1017280005232B707FE702ABDB7DFAE7230040330C
:101738001978227D914219D810D35A78637D9A423C
:1017480014D80BD32300423318785A78E37DA17D4F
:1017580012021B0202430B439A4207D2E06C00219B
:10176800826803F06EFD01232B7015E0200006A9A6
:10177800FFF782FE2B78DA1E012A0BD8002000F032
:101788008BF8002804D1002000F070F8002803D05E
:10179800FF23E9E7022BF6D02B78FF2B08D1452150
:1017A800264803F01EFDFEE7002000F075F8EDE77F
:1017B8000021254D0591012B14D00A00200003F0CB
:1017C8009BFB00280ED02D681022002106A803F0EC
:1017D800DEFDE06C03F010FD206A03F00DFD28002B
:1017E8000BB0F0BD00212000FFF7B0FD144F3B689F
:1017F8009842E8D12B689842E5D0124B1B68984272
:10180800E1D0059B01330593059B012B00D0FEE732
:10181800206A03F028FB3071236A5B6834603D68F6
:10182800B360D1E7BC080020541000209B7300105F
:101838000C73001059730010C7730010F173001077
:10184800B8040020000000200400002070B5064CF9
:10185800050060220021200003F099FD29002000E6
:10186800FFF796FE70BDC046EC17002013B5094B74
:10187800C000C05801A9C0B200F08CFC01240028A7
:1018880006D1019805F04AF90400019803F0B4FC68
:10189800200016BD186F001030B5104BC000C0589E
:1018A80085B0C0B201A900F075FC0124002810D150
:1018B80002AD2900019802F055FD041E0CD1EB7809
:1018C800032B03D1019805F0F5F80400019803F003
:1018D80093FC200005B030BD0124F7E7186F001015
:1018E800F0B507000C0016001D0085B0002B01D1D3
:1018F800002729E0180003F038FB0028F8D102A9D6
:10190800FFF7A0FC0298002806D10124029803F0F2
:1019180073FC200005B0F0BD03A903F0D3FA0190D1
:101928000028F2D1029803F067FC3800039903F00D
:10193800FDFB7B6A5F686B79012B29D1002CD7D11D
:101948002B6898428041074021000020FFF76CF97E
:1019580002A9C0B200F01EFC0028D6D12023320014
:101968003900029803F049FC041ECED1002DCDD0D9
:101978007278337812021A43B378F4781B0413434D
:1019880024061C430D4BE418631E9C416442BDE7CA
:10199800022BADD12B68012B05D98342A8D863420D
:1019A8005C41E4B2A4E7012BA2D1002CCCD0012CDD
:1019B8009ED12C79023C631E9C4199E7C3470C6970
:1019C800F0B589B000900C00010000201600FFF768
:1019D80015FC051E55DB0098E46DFFF727FCE3B204
:1019E8000393039A6B1E53431B180293002301248D
:1019F8000193013304936442002D12D1019B012B02
:101A080003DD4521214803F0ECFB631C06D0F22CD2
:101A18002CDC02230134FF333460B380280009B082
:101A2800F0BD6B1E06AA05930299012300980732A0
:101A380003F0E3FB071E26DB06AB01220098D91D45
:101A480004F0D7FF00280DD0049BFB1A5A1E9341BF
:101A5800019AD3180193029B039A059D9B1A02933E
:101A68000497C9E7631CF6D12C00F4E70223F33C82
:101A7800737163100133336001231C40E41834711F
:101A8800CCE70725CAE70125C8E7C046FD73001063
:101A9800F8B5876A456D040003F037FBAF420AD0FA
:101AA8006B1CBB4207D0834205D01548572103F071
:101AB80098FB0020F8BD002312481E00F32FF5D82C
:101AC8009D4206D1200003F066FB00280ED10E4887
:101AD800ECE7616ADA0089184E68216D8A18526845
:101AE800964201D00948E1E70133E9E70120AF4216
:101AF800E0D9636AED005B195B68B342DAD0F1E7BD
:101B08002074001058740010B3740010877400100B
:101B180073B514004B68104A060013400F4A0D00B5
:101B2800934218D10B68012B15D16946200002F0A9
:101B380019FC6B461B78032B0DD12100300003F0F4
:101B480057FA200004F0B6FF2000A96803F0C7F98F
:101B5800200002F0E7FB73BD00FF00FF0001000456
:101B6800F0B505008DB00C00110003F0DFFA6B6AC8
:101B7800039020005F6803F0F8F900281ED0E86D94
:101B8800FFF736FB3B00AE6A013E984202D9013EA0
:101B9800DB19FAE7039BB34210D35721694803F0D6
:101BA80020FB3300039A7B43013257217A4366486E
:101BB80003F017FB0123E3710DB0F0BD0AA9032060
:101BC80000F0E8FA0BA9042000F0E4FA210028004C
:101BD8000B9AFFF79DFF63790593012B4CD1039E68
:101BE80044E0236803990693069A059B9B1A5B18A1
:101BF8009E423AD86B6AF00019681A581B18083BBD
:101C08001B68521A5B1A0893069B0792012B11D185
:101C18000B9B0693E368022B08D00499280003F075
:101C2800E7F922002800049903F014FA280006991D
:101C380003F0DEF93A000799049803F0D5F9079BF9
:101C4800049A00931100089B28000197FFF774FC81
:101C58002100280003F096F9236801332360002847
:101C680003D03A4A136801331360013E0A9B049378
:101C7800002EB6D1059B23600223012663710A9BBF
:101C88000493039BB34206D2049803F0B5FA0B9869
:101C980003F0B2FA90E723689E4250D30B9B6A6A1E
:101CA8000593F300D158083BD058099111682A6D63
:101CB8000891D1581368CB1A06932379012B3CD18C
:101CC800089B3A00C31A19000498079303F08CF98B
:101CD800079B049A059900932800069B0197FFF734
:101CE8002BFC2100280003F04DF902232371002862
:101CF80003D0164A1368013313603A000699059811
:101D080003F072F9089A099B04999B1A069A28000D
:101D180000920197059AFFF70FFC2100280003F0B5
:101D280031F923680133236001232371002806D089
:101D3800064A13680133136001E0022BDDD0013637
:101D48009DE7C046EC7400101B7500104C1800206D
:101D5800BFF36F8F72B60122034B5242191DCA6737
:101D6800C02149005A50704700E100E000221000ED
:101D780005490B681B0ADBB29A4200DB70478A6090
:101D880008610132F8E7C04690ED00E010B5024B5B
:101D98001B68984710BDC04608000020014B18601A
:101DA8007047C0460800002013B50B000021034C03
:101DB80002000091200000F003F813BD951D0010EB
:101DC800F0B51C0093B0531E0893002306900791AA
:101DD800039309E0002800D1CBE1069B07999847B7
:101DE800039B089501330393089B58785D1C2528AD
:101DF800F0D1012700257F422A003E0002330893D4
:101E08000995089B1B78392B28D81F2B0ED8002B37
:101E180000D1AEE10799069B25209847089B0799B2
:101E28001878069B9847039B0233D1E7180020389F
:101E38001928EFD8FEF7B4F90DEEEE0DEE36EEEEFA
:101E4800EEEE5A0DEE613DEE435353535353535345
:101E580053531D00089B01330893D2E7582B00D138
:101E6800D8E018006338C1B21729D3D81728D1D8B9
:101E7800FEF7AAF91F015600D0FFD0FFD0FF460099
:101E88005600D0FFD0FF4600D0FFD0FFD0FFBA00E9
:101E9800D0FFD0FF0A01D0FF5600D0FFD0FFBA0014
:101EA800D0FF4600069B252007999847039B0133DE
:101EB8008EE701230999002799430991CAE7002E63
:101EC8000DDA002F0DDA0999002900D14BE1F04312
:101ED8000A21C01730404143CE18303EBAE7002FE0
:101EE800F5DB0A214F43FF18303FB3E708CC002F3A
:101EF80000DB3AE11E1EADDA5E4202230993A9E730
:101F0800682B03D1682A06D14822A3E76C2B02D19B
:101F18006C2A00D12BE1002A00D07BE71A0099E750
:101F28007A2A06D104CC0092752B53D10023019351
:101F38000EE06C2AF6D04C2AF4D1453A0734944383
:101F480022000834752B08D1536812680092019357
:101F5800202D42D1884B013E0FE053681268009251
:101F68000193019B002BF3DA009801990023424268
:101F78008B4100920193814B013E05930025009807
:101F880001990A220023FEF79BF994460CAAAB1884
:101F9800624630321A75019B01919C4661462B00BE
:101FA800009A013D00900029E9D1092AE7D80122C9
:101FB800D21A049214330CAA9B180B93002F71DACF
:101FC800099BDB0700D581E0049BFB1A0A93049B5D
:101FD800F51A18E0D3170193C3E7694B05932B2D26
:101FE800CCD1684B013EC8E7702B12D1002104CC3C
:101FF8008A4226D1753B0A93614B751F05930523C9
:102008000493614B0B930222099B13426ED12E005D
:1020180062E078236C2A02D1002104CC09E04C2A22
:10202800FAD107342100453A91430C000A684968FF
:10203800083453480590232D06D154480590980636
:1020480001D553480590023E60200340393B9C4629
:1020580000230F25154028000295092D01D9604459
:1020680002900CAD5819029D303505750D07100901
:1020780028430D0904955D1E002901D10F2A96D920
:102088002B0002000499E4E708CC18000B9303F036
:102098005EF93B4B0490002F02DBB84200DD049749
:1020A80000270593049BF51BFB1A0A93002BAADC57
:1020B8008DE708CC0CAA137001235B420A93304BBE
:1020C800751E05930123049313009BE73700E9E786
:1020D80020200799069B9847013EF9D5EB43039AC0
:1020E800DB172B40D218013D0392ED1A039B04E045
:1020F800069B07999847099B0133039A0993059B07
:102108009B1A099A985C0028F2D10A9F013F1AD5B8
:102118000A9B0A9ADB43DB171A400B9E049F039223
:10212800013F15D5049B2F00DB43049ADB171340AE
:10213800039A9E18013F11D5EB43DB171D40099BFD
:10214800AD19EB1844E60799069B30209847DDE760
:1021580030780799069B98470136E1E70799069B6F
:1021680020209847E6E70123C8E61F0072E64C22C4
:1021780070E6039813B0F0BD5C7600105A76001034
:10218800FC7300105E76001066760010637600100F
:102198006076001070B5104B0D001C68002C17D02D
:1021A8000E4B1A680023934202DB022040420EE0E5
:1021B800210026781031864202D00C000133F2E764
:1021C800E06804F0B6FC002804D000202C6070BD44
:1021D8000D20EBE71320E9E70C000020246F001026
:1021E80010B5436888B00293836804920393002370
:1021F8000A68C06806920C0001AA0649059307936D
:1022080003F08EF90798002801D1059B236008B0D8
:1022180010BDC0469352001010B5034802F0CBFF22
:10222800024802F0C8FF10BD6C760010A2760010BC
:1022380030BFFDE7074A9368997B7F2908D8526920
:10224800934205D08023044A5B0551680B435360D1
:102258007047C046B01A002000ED00E070B5224B70
:102268000C005B6888B0DB05DB0D62B6BFF36F8FCF
:102278000025160E2900FF2E09D1F33E1640082E20
:1022880005D001000135120701D5210000250024E1
:10229800032B14D18B69154A934202D3144A9342F3
:1022A80006D3144A0024934209D3134A934206D210
:1022B800023B1A88114B00249A4200D10C68202254
:1022C800684603F05BF8079B002D0AD0DA0502D1B7
:1022D8000B4A134307936946200003F011F808B02E
:1022E80070BD5B0A5B02F5E700ED00E0A801001095
:1022F800A06C0010000000200000002002DF000099
:10230800FF0100000821024A53698B43536170475B
:1023180000ED00E0EFF30880EFF3098101B57246A4
:10232800FFF79CFF01BDC04672B607480749401831
:1023380080F30988EFF314800221084380F314889E
:10234800BFF36F8F00F09AF8E8340020000800000F
:1023580010B50A4B9B6883420DD1EFF30583002B20
:1023680009D08022064B520559680A435A605A6AB6
:1023780004490A405A6202F035FB10BDB01A002029
:1023880000ED00E0FF7FFFFF13498A6813481044FF
:10239800EFF3098CF0C043464C4655465E46674607
:1023A800F8C072B60E4F0F4E4A698A603E60906E52
:1023B80000239366002800D162B6084C101910302B
:1023C800F8C89846A146AA46B346BC462438F0C881
:1023D8008CF3098870470000B01A00203000000014
:1023E80004ED00E00000000804207146014202D01C
:1023F800EFF3098001D1EFF3088081690239097888
:102408000229FFD001B5724602F082FF01BDC04625
:1024180043B2000605D41F221A4001239340014A03
:102428001360704700E100E030B5FF2503220B0080
:10243800290040B20240D20091409B012B40C94381
:10244800934000280ADBC0240A4A800880008018CC
:10245800A40002590A401343035130BD0F22104013
:102468000838054A800880008018C269114019435D
:10247800C161F2E700E100E000ED00E0FF22084B57
:1024880010B59343074A9360BFF34F8FBFF36F8F25
:1024980002F090F802F0A4FB00F03AF802F0CAF853
:1024A8000001001000ED00E010B5203A1360029B17
:1024B80001245360039B06499360049BA143D360A6
:1024C80080235B04D361002391610265836610BD9C
:1024D800D5510010084B70B50E00150098602C1CE3
:1024E80086F309880020054B9847201C002100220C
:1024F8000023034C2047C046B01A00203D5300106B
:10250800D55100101022014B1A61704700ED00E010
:10251800F0B5C02400220326FF25A40010002F00D8
:102528003040C0008740054993089B005B18195943
:102538000132B94319511A2AF0D1F0BD00E100E087
:1025480010B5EFF30583054A103BDB00D118496845
:1025580098588847FFF76EFE10BDC0464C6D0010B6
:10256800014B18607047C0461000002049B243680C
:10257800102916DC0A290BD00B2910D00C224A434B
:102588001B689B18802292019B188022120103E08D
:102598009B68054A9B182D2200201A607047DB684B
:1025A800F7E716204042F9E70430000049B24368D3
:1025B800102916DC0A290BD00B2910D00C224A430B
:1025C8001B689B18C02292019B188022120103E00D
:1025D8009B68054A9B182D2200201A607047DB680B
:1025E800F7E716204042F9E704200000802310B5E1
:1025F800084A5B041360084A94691C4202D01620FA
:10260800404210BD01609269100018401A42F8D08B
:10261800F5E7C0461830064000000640030010B534
:1026280008000B2907D8FDF7C5FD0909090912207B
:10263800282C2C2C33330120404210BD1A680C235F
:102648004B439B58134ADB051B0FD056F5E7124A3C
:102658000E201368116803220C0014401142ECD0BC
:102668000E4A0238022CEED1E7E70D4A042013681F
:1026780012689207E1D00B4AE5E70B4B0B4A1B683F
:10268800E1E70C234B430A4A9B181B68094ADAE71F
:102698000C20D2E7F176001030800040EE76001072
:1026A8003C800040E876001048800040E176001049
:1026B80000800040DB760010F8B506000C00756855
:1026C80021002800376902F06EFE002800D16DE075
:1026D8000E2C00D96AE02000FDF76CFD08080808F8
:1026E80008082A08080830306A62660021002800B5
:1026F8002F68FFF793FF01003000FFF7DDFF0C2381
:102708006343FB185E68051C5868C0B2FEF762F99F
:102718002849FDF769FF041C300AFEF75BF9011C24
:10272800201CFDF7EDFD011C281CFDF75DFFF8BD21
:1027380006212800FFF772FF0400C0E70A2C2DD1FC
:10274800AF6821002800FFF769FF01003000FFF79C
:10275800B3FF061CB868FEF73DF9311CFEF726F8F2
:10276800061C3F203D68FC682840FEF733F9011C31
:10277800301CFDF739FF0725061C200C2840FEF702
:1027880029F9011C301CFDF72FFFFF68041C380BCA
:102798002840FEF71FF9011C201CC6E7EF68D0E7A8
:1027A8003868FEF717F9C2E77868FAE70020BEE74D
:1027B8000148BCE700007F43001B374BF0B5446875
:1027C8008FB0A36822220393E3685E4905A80493A7
:1027D8002568276902F0D2FD5B4B5C4A1A605C4BA6
:1027E8005C4A13601E005C4A12689643FAD10C20BA
:1027F80003F0F5F9AE6700F0A7FC0321574BDA6B3D
:102808008A43DA635A6C012AFCD103211A6B8A4382
:102818001A639A6B012AFCD1E269514B03985A4317
:10282800636A0093236AA16900F040FCE26A4C4B9A
:1028380004985A43636B0093A16A236B00F036FC3B
:10284800112105A802F0F9FD730005AA9956C8B22E
:10285800092867D90136112EF6D1C0239B01EA1841
:1028680080231B0113603F4A3800AA1813603E4AB0
:102878001430AA1813603D4AAD182B602300AA250E
:10288800D83319682D012943FFF7B0FE002855DB1E
:102898002300DC331B68364938001943FFF7A6FECE
:1028A80000284BDB2300E0331B68002B48D02900AD
:1028B8001F2B00D8591938001030FFF797FE002851
:1028C8003CDB2600E43631682A4D89B22943381D9D
:1028D800FFF78CFE002831DB380031680830090C1E
:1028E8002943FFF783FE002828DB234B194A13608E
:1028F800194B1B68DB43DB01DD09002BF8D12900EC
:10290800606902AA02F071FF002807DB029B2A0017
:102918001979186802F07CFF002801DA831C0DD1B0
:1029280000200BE0090161180B6C00934B6CCA6B1B
:10293800896B03F032F900288CD116380FB0F0BD3E
:102948000E49B8E7D86E001000E00040BFCDFBFE8E
:10295800FE7F3C0000F0004008C0004000800040BE
:10296800001BB7000C3000001830000024300000B5
:1029780000B0FA0000009696FFFFFF01A10A0000D0
:1029880010B5084804F0D5F8002808D0064C2000F7
:10299800FFF7E6FD2000FFF701FA002010BD132025
:1029A8004042FBE7106D0010B529001070B5040017
:1029B800074D0A2804D1AB680D2128005B689847A9
:1029C800AB6828005B68E1B29847200070BDC0463C
:1029D800106D00100048704798700010024B0B6093
:1029E800012313607047C04690700010F7B50D00C2
:1029F8001C1E009242D0002952DB80225B189203F1
:102A080093424DD8EFF31083019372B6CBB2002BEB
:102A180015D080267600F61AA64200D92600224F45
:102A280032000099380002F0A9FC28003200390071
:102A380004F022F9009BA41B9B190093751926002A
:102A4800009B1919891BFF2E1AD8FF23270026007F
:102A58009F431E401C420BD0134C009B3200D919D7
:102A6800200002F08BFC32002100E81904F004F980
:102A7800019B002B02D162B6BFF36F8F0020FEBD11
:102A88008022094F5200380002F078FC8022281971
:102A9800801B39005200013E04F0E6F8FF3ECFE704
:102AA80016204042EBE7C046E0330020F7B50600A9
:102AB800002403690193E308144A08339B009B58D8
:102AC800072222409200D3400F22134203D101343F
:102AD8001E2CF0D1F7BD0F21200000F0BBFB019B9D
:102AE80059680029F3D00127A7400D680029EED0C6
:102AF8008B681A003A403B4202D030004B68984736
:102B08002B1E00D02B6829001D00EFE70041014073
:102B1800436803491A68936B0B4093637047C04638
:102B28007FF8FFFFF0B5036987B001910592049320
:102B38001B7A0500002B00D09BE0002A0BD0012156
:102B480043681A68136B8B43136343680F311A6821
:102B5800D36A8B43D362EE226B681B68DC6A9443AA
:102B6800019A1279012A06D0022A16D0002A04D026
:102B7800862040426AE002221443019A5279012ACF
:102B880003D0032AF4D105321443019A907903281B
:102B9800EED8FDF70FFB0604181A0622ECE72022F0
:102BA8001443019AD279002A11D0012AE0D1802257
:102BB800196BD2010A431A636B681A688023116B78
:102BC8001B020B430CE04022EAE76022E8E71A6B9D
:102BD80029490A401A636B6828491A68136B0B4025
:102BE8001363049B40267642F717D868019B810E31
:102BF8001A68800100231201FDF762FB029003911D
:102C0800029A039BB6185F41002F30D11C498E42AF
:102C18002DD8039B69689806029B09689B090343A2
:102C28004B623F216B68029A1B680A409A62BFF3A5
:102C38005F8F6B6801991B680498DA6ADA626B68BF
:102C480008221B68DC6202F099FB3800059B002B08
:102C58000BD06B681A681023D16A0B43D3626B6878
:102C68001A680123116B0B43136307B0F0BD1620DC
:102C78007FE786204042F8E7FFBFFFFFFF7FFFFFA7
:102C880080FF3F00F7B5456804000669A86800287A
:102C98005ED12869002864D1377A002F2FD13900F6
:102CA800686801AA02F0A1FD002859DB019B3A00DF
:102CB8001979186802F0ACFD002851D12B6A002B55
:102CC80000D09847012163681A68136B8B4313631C
:102CD80063680F311A68D36A8B43D362EB69002BA0
:102CE8004ED1002231002000FFF71CFF63681A68EC
:102CF8001023536362681268D16A0B43D3620022BF
:102D080063681B689A636368254A1B685A64337A48
:102D1800002B13D1626812689364BFF36F8F02218E
:102D280063681A68136B8B43136363681A68C0235C
:102D3800116B9B000B431363BFF36F8FAB692000CC
:102D480098470123327A3374002A1FD0002007E005
:102D5800E9688368DB68002B1ED09847002898D064
:102D6800FEBD836869691B689847320028696969EC
:102D780083680C32DB68002B00D18DE798478BE71E
:102D88002000F16898470028ABD0E9E7626812682C
:102D9800116B0B431363D9E758204042E0E7C04664
:102DA800FF07000070B580251049114B8C681B681F
:102DB8000E6810488A686D02002C08D1002A11D1CB
:102DC8001A002E4209D100681818801A70BD002A0E
:102DD8000AD02E4201D1A242F5D90468E418046051
:102DE8000968F0E71C00F4E71A00F2E710E000E0D9
:102DF8006C190020681900200020094A136A1B0278
:102E08001B0A1362074B084A1A60084B084A1860E5
:102E1800084B5A600722986019680A431A6070477D
:102E280000ED00E06C190020D43000006819002083
:102E3800D330000010E000E0F8B50024FFF7B2FF3F
:102E48000F4E230031680F4D0A0028686968801802
:102E58005941286069600C4D34600C492E686F68D0
:102E6800801BFDF7BBF90949230041430A00921969
:102E78007B412A606B6001F08DFFFFF7DBF9F8BD3D
:102E8800681900203803002030030020D4300000E7
:102E9800F0B53B4B3B4D87B000295FD0421C08D1B1
:102EA80001212A688A432A60FF2212061A6007B0A5
:102EB800F0BD1B68039300230293012853DCEFF352
:102EC8001083059372B6FFF76DFF00221100AB68FF
:102ED80004932D4B1E685F6836184F413000390047
:102EE80018605960294B009601971A60284B1C6896
:102EF800009B1B1B93423DDB264F0298264A7843D2
:102F08008018C0183900FDF769F9009B7843E41A66
:102F180080232018DB00984200D218001F4B9842EB
:102F280000D91800164B184918600138AB6868605A
:102F38000020A860049AD41A9A421ED2039D6219EE
:102F480003000C684D6812196B410A604B60059BC1
:102F5800002BACD162B6BFF36F8FA8E71B68039351
:102F6800431CA8D10E480F4B984200DD1800431EA1
:102F78000293A4E78020C000D4E72200E0E7C0461F
:102F88006C19002010E000E03803002068190020C8
:102F980030030020D4300000D330000084C6FF0086
:102FA8003D0500003E05000070B5EFF3108572B6D0
:102FB800084A094B14681B68E41AFFF7F3FE001966
:102FC800002D02D162B6BFF36F8F0449FDF706F9F1
:102FD80070BDC0463803002030030020D430000004
:102FE8000121024A13688B431360704710E000E028
:102FF800F7B50C24444301932A4B0092E418636804
:10300800089A05000E00934200D26260C0232F1F69
:103018009B01FFB2E318012F1BD8012E19D10322FF
:103028001A60A3683342FCD0009B22685B015340BE
:10303800E022134080225201A21813600321236862
:1030480073400B4013600123B340A2681342FCD0C5
:103058001BE0802212011A60134BAA00D1580029E4
:1030680007D05869FDF7BAF8431C032058430338C2
:10307800FDD2009B22685B015340E022134080226E
:103088005201A2181360012FD8D9802380229B01F6
:10309800E31812011A60089B019A6360024BAD00A5
:1030A800EA50F7BD0080004070190020F8B5040010
:1030B8001F4817001E000D00FDF790F801003800AA
:1030C800FDF78CF8069A3304120313432268002A8A
:1030D8000FDA3F2122680A40AA420AD1A2681205E3
:1030E800120D824205D1EE21E268C9020A409A42D5
:1030F8001CD0104A104EA1184A42514101220C31ED
:103108008A400E490A600E490A60170031688F43E9
:10311800391EFAD10B4A2131A2182560A06011602E
:1031280021680029FCDAE36008231360F8BDC04673
:10313800001BB7000040FDBF08C0004000E0004091
:1031480000F0004004300000AA22064B12011A6069
:103158002F220549DA60054A11605A68002AFCDA0C
:103168007047C0460040024000B0FA0000600240CC
:103178008023024A9B000B43D362704700800540BE
:1031880010B5084B8200D3181C6840236340C02444
:103198002340054CC00012191360044BC01841604D
:1031A80010BDC04604C0014004D0014000400140A9
:1031B800064B8000C3181B68C90092000A435A4096
:1031C8000C231A40024BC0180260704704C001402B
:1031D80004D00140064BC000C3181B6809035940BE
:1031E800C0239B011940034BC01801607047C046BB
:1031F800044001400450014002238000002903D00C
:10320800024A801803607047014AFAE704E0014067
:1032180004F00140054B8000C3181B685940012386
:103228001940034BC01801607047C04604C00140F4
:1032380004D00140054B8000C3181B6809015940A0
:1032480030231940024BC0180160704704C0014088
:1032580004D001400722C308104080008140024A80
:103268003C339B009950704700400140F8B5D0238B
:103278001B061C68050063425C412F2364429C4383
:103288000A4B0F00E4181600FFF7E4FF07232B4052
:10329800ED089B00AD009F4064198023002E00D1EB
:1032A800C0239B01E4182760F8BDC04630410140A7
:1032B80040238000002903D0024A80180360704729
:1032C800014AFAE704E0014004F00140044B1A689F
:1032D80042405008404252421043C0177047C0460F
:1032E800981A0020002905D0074BC91889004118F1
:1032F800884200D970470A68036812BA1BBA04C02A
:1033080004394B60F4E7C046FFFFFF3FF0B5884241
:1033180004D00024074E9200944200D1F0BD3768D3
:1033280005595F40BD430F591F403D4305510434C3
:10333800F2E7C046981A0020F0B58FB01F00079238
:10334800169B674A0E000024059093420AD11599EE
:10335800149802F0ADFC041E00D1013463091593E2
:103368001F231C400125159B0A955B014F2B01D992
:1033780003230A932B000A9A079893400D933B0066
:103388009340189A9B00D318BA0094460893BB0040
:103398000693089B6344099302F068FE00210B9092
:1033A800BA00189801F0F3FF189B18991D60099B43
:1033B800080003930B9B179A0293079B01970093AE
:1033C8003B0002F065FE189BBA009D1831002800EA
:1033D80001F0D4FF022329000C930D9B0C9A934211
:1033E8004ED1069A1899059801F0C8FF00252E00BD
:1033F800099B059A03930B9B11000293079B1000EE
:10340800009301973B0002F043FE002C4ED1159B20
:103418001F34013B1593159B149A9B009B5801225E
:10342800E3406D0013401D430A9B0136B34204D0AC
:10343800002CDDD1159B002BDAD1189B284A0D935F
:10344800169B0026934233D1069B069A5D43189B30
:103458000898591901F092FF099B059903930B9B52
:1034680008000293079B089A009301973B0002F01B
:103478000FFE002CBAD1159B002B14D10FB0F0BD54
:10348800069B2A00CE18099B300003930B9B0197DB
:103498000293079B00933B0002F0FAFD0C9B31005E
:1034A80001330C9399E725002600A1E7013CB2E718
:1034B8000C4B18681B68584068407040FFF706FFBF
:1034C8003A00C3430D990898FFF720FF069A0D9B11
:1034D800944663440D930C9B0136B342E8D1BBE795
:1034E8002A2A2A2A981A002010B586B00B9C049420
:1034F8000A9C0394044C0294099C0194089C00942F
:10350800FFF71AFF06B010BD2A2A2A2A054B0131F7
:103518001B68013243409A4308400243013A10B203
:103528007047C046981A0020114B70B504000D0072
:10353800994202D91020404270BDC3888B4201D302
:103548000020F9E70421280000F098FC061EF1D0BD
:103558002168002908D0E288920001F00FFFE18875
:103568002068890003F0EDF8E5802660E8E7C046AA
:1035780010270000174B70B50500994202D910209A
:10358800404270BDC3885C1E8B4208D8FFF7CCFF51
:10359800F7E72B68A200D358002B02D1013C002C7E
:1035A800F7D101348C4200D20C000421200000F035
:1035B80065FC061EE3D02968002907D0A20001F0A7
:1035C800DDFEE9882868890003F0BBF80020EC805C
:1035D8002E60D6E710270000F0B59DB0039001914A
:1035E800180000210092079302F060FF002800D124
:1035F80077E100240125BC4B07991893009819AB73
:103608000FAF0F94109511AE119412951394149551
:1036180015941695179302F0CCFEA04227DA039B67
:10362800A34206D1019B002B1AD1002420001DB013
:10363800F0BD2100039802F041FE041EF2D00FA84D
:1036480002F0DCFD11A802F0D9FD13A802F0D6FDA6
:1036580015A802F0D3FD0C2119A800F003FCE5E73A
:103668000099019802F0F3FD041EE8D1DDE7380067
:10367800009902F0ECFD041EE1D13000079902F038
:10368800E6FD041EDBD1009BB580BD80D98813A858
:103698000231FFF749FF041ED1D1010013A802F03F
:1036A8000DFE041ECBD1009B15A8D9880231FFF767
:1036B8003BFF041EC3D1300002F02AFE1F2318402E
:1036C80098426ED01B1A19003800049302F04AFE83
:1036D800041EB4D13000049902F044FE041EAED199
:1036E8000FAB11A8DE88C588771B7B0119000293F0
:1036F80002F038FEBF00041EA1D111A90FA802F0E4
:103708008EFE00284FDA029911A802F048FE041E26
:1037180095D1731E02936B1E0B939B000C93734BF6
:10372800EB189B000D93724BF3185B1B9B000593E2
:10373800704BF3189B0006930B9A029B0FAD9342B4
:103748003ED8039B002B0DD0180013A902F07FFD73
:10375800002800D0C1E0009B079A9B8892885343B9
:10376800039A9380019B002B00D168E728000499F5
:1037780002F015FE002800D0AFE0009B29009B88CE
:103788000198AB8002F063FD011E00D0A7E001980C
:1037980002F08CFE002800D051E70123019A9380A3
:1037A8004DE704949CE7139B0FA9DB191A680800DE
:1037B80001321A6011AA02F059FF041E9DD03EE79B
:1037C8000F9B139D0893029B9E00089B9E19119BBB
:1037D80031680993099A0C9B944663441A680A93C2
:1037E800069B1F1D089BDF19059BED18914205D20A
:1037F80000233868FCF764FD002901D0012040420D
:10380800029A00232860012A02D0089B069A9B5836
:1038180019933B681A933368099E1B932B680133ED
:103828002B600D9B9C4666442B680021013B2B6056
:1038380015A802F043FD00284FD10B9B002B00D0A8
:103848003068159B0A9A1860126815A95A60080012
:103858002A6802F011FF00283FD117A915A802F025
:10386800DEFD0028E0DC2A6811A915A802F004FF93
:10387800002832D1059B15A8DE00310002F072FD48
:1038880000282AD10FA9080015AA02F0EFFE011E90
:1038980025D10FA802F00AFE002815DA11A915A8EB
:1038A80002F0D5FC002818D1310015A802F05AFD05
:1038B800002812D10FA9080015AA02F0D2FE00288C
:1038C8000BD12B68013B2B60029B013B0293059BAC
:1038D800043B0593069B043B2DE70400AFE60C0070
:1038E800ADE60C246442A1E601000300FEFFFF3FA1
:1038F800FFFFFF3FFDFFFF3FF0B58DB0129D0600B3
:103908000791280000211700099302F0CFFD002835
:1039180002DC042464421EE001222B681B68134267
:10392800F7D00021380002F0C1FD0028F1DB380093
:10393800802402F0EDFC2401A042EAD8280002F01D
:10394800E7FCA042E5D8F988002907D13000013109
:1039580002F0B4FC040020000DB0F0BDE88802F0CD
:10396800F6FB0421040000F089FA0490002800D135
:10397800B2E000230A9301330B93A3000593139B32
:10398800002B0DD129000AA802F0C6FB041E1ED088
:103998000599049802F0D5FE0AA802F02FFCDAE790
:1039A800139B1B68002B70D129000AA802F0B4FBF6
:1039B800041E08D00599049802F0C3FE139B1B68E7
:1039C800002BC8D1E8E7139A0AAB03CB03C2300037
:1039D800079902F03CFC041E69D10123290030003C
:1039E800B38002F01CFD00285ADA3000E988FFF79E
:1039F8009BFD041E5BD1286802F038FB049A0690F0
:103A0800EB88306802920A9A01000192069A0092A5
:103A18002A6802F0D3FB314BFA889C46EB88306861
:103A28000893099B0A9963454AD1049B0291039321
:103A380001923A6801000092089B2A68FFF754FD3A
:103A4800049A3068EB880192069A010000922A686D
:103A580002F0BFFB079B04229B5E0693013326D12D
:103A68003B6801271B683B4221D0F188306802F08F
:103A780098FB3A000699FFF749FD3200B08029000B
:103A8800300002F0EEFD040011E0E9881398FFF71A
:103A98004BFD041E8ED1139A0AAB11CA11C396E7C7
:103AA8002A003100300002F019FE041E9DD005994D
:103AB800049802F046FE139B002B00D07EE76BE7CC
:103AC800049B0291039301923A6801000092089BBB
:103AD8002A6802F047FBB3E710241BE72A2A2A2AA0
:103AE80013B5049C00930194014BFFF705FF16BD25
:103AF8002A2A2A2AF0B50A4C25684540ED43002BAE
:103B080000D10B000024059EB44200D1F0BD165D23
:103B18001F5D06402F403E430E550134F3E7C04673
:103B2800981A002003000448082B03D00348092BE7
:103B380000D000207047C0466977001066770010F3
:103B480001680D4A03000120914213D10B4AD9693B
:103B580091420FD19A6882420CD8DA68002A02D0C2
:103B680019698A4206D05A69101E03D09869801ACA
:103B7800434258417047C04655AA00FF669911EE66
:103B880070B50F4B01249E68002E0AD03000FFF755
:103B9800D7FF041E12D1F368002B0FD13569002D11
:103BA80001D1200070BD2800FFF7CAFF002805D109
:103BB800EB68B34202D12E002D69F0E70124F0E74B
:103BC8009C1A0020F7B5414F0E003C68002C1FD00E
:103BD800BC68002C1CD0041E1AD00C1E18D00D0076
:103BE800454301002800FCF7F9FA0024B0420FD140
:103BF8002B1D0DD803232E001D4201D09E430436F1
:103C0800FC6803E06368B34235D2A469002CF9D19B
:103C18002000FEBDFB6043E033002033E318203A68
:103C28005A6000222A499A60DC6022691960294991
:103C38001A61D961002A00D0D36062695A61A1690A
:103C48009961002A15D093619A69002A00D05361BE
:103C5800012223610023A26066606361A3613B695E
:103C6800134229D1019C2A000021200001F08FFB7A
:103C7800CEE7FB60E8E7A368002B03D0164B0120D2
:103C88001B689847230062682033921B0193232AFC
:103C9800C2D801236269A360A369002ABAD09361DC
:103CA800A369002B01D062695A6100236361A36193
:103CB80001243B692342D5D0FFF762FF0028D1D009
:103CC800054B01201B689847CCE7C0469C1A00208A
:103CD80055AA00FF669911EE6000002070B5041E19
:103CE8004CD0444D2B68002B48D0AA68002A45D0F8
:103CF800834203D86A689B18984203D33E4B01203D
:103D08001B689847203C2000FFF71AFF002803D0C3
:103D1800394B01201B689847A368012B03D0364B09
:103D280001201B6898470023A360E368002B26D076
:103D38009A68002A23D161685A68203152185A605B
:103D4800E36822691A61E6683369002B00D0DE60F7
:103D580020220021200001F01AFB3069002802D03F
:103D68008368002B32D02B699B0707D5FFF708FF24
:103D7800002803D0204B01201B68984770BD20699C
:103D8800002830D08368002B2DD1426863689B18C7
:103D980020336360036962692361A369002A17D12C
:103DA800002B1CD1436963618269A261002B18D082
:103DB8009C61A369002B00D05C612369002B00D0B3
:103DC800DC602022002101F0E2FACCE73400DCE7D5
:103DD8009361A369002BE5D062695A61E2E7EB6061
:103DE800F7E7EC60E5E7EB68A361002B00D05C61C6
:103DF800EC60B8E79C1A00206000002070B5144EF3
:103E08000C00050000211422300001F0C0FA11490D
:103E1800114800F043F8232C19D903222B00134032
:103E2800154203D0043CED1A1C1904352200002168
:103E3800280001F0ACFA7460203CB5606C60B3688F
:103E4800064A35601A60B368054AF360DA6170BDE6
:103E58009C1A0020E53C0010CD3B001055AA00FF3D
:103E6800669911EE10B50A000400002903D0024B30
:103E780000211B68984710BD5C00002010B5024B5C
:103E88001B68984710BDC0466800002010B5024B5B
:103E98001B68984710BDC04664000020024B18609C
:103EA800024B002019607047680000206400002061
:103EB800F8B5060008364768040030000D0002F027
:103EC8002DFA87424ED1802362685B009A4249D816
:103ED8000021300002F0EAFA002843DD002130001A
:103EE80002F006FA00283DD0002D08D1200010303D
:103EF800002102F0DBFA002834DD0020F8BD25009F
:103F080020350021280002F0D1FA00282ADD0021FE
:103F1800280002F0EDF9002824D0083500212800F7
:103F280002F0C4FA00281DDD0021280002F0E0F9A3
:103F3800002817D020000021103002F0B7FA00281E
:103F480010DD20000021303002F0B0FA002809DD31
:103F580020000021383002F0A9FA002802DD2000F4
:103F68004030C5E70048C9E780BFFFFFF8B5040047
:103F78000D0017001E0000290DD1002F13D1002EAF
:103F880019D1069B002B1ED1079B002B23D1002D96
:103F980029D1002006E0083002F059F90028ECD0B9
:103FA800144BC018F8BD20003900203002F04FF93A
:103FB8000028E4D0F4E720003100283002F047F967
:103FC8000028DED0ECE720000699183002F03FF90F
:103FD8000028D9D0E4E720000799103002F037F91B
:103FE8000028D4D0DCE72000083002F097F96060A0
:103FF800CFE7C04680BFFFFF70B505001400012958
:1040080001D0074870BD002A04D1012300202B6786
:104018006C67F7E71000FFF785FD0028F5D1F0E79A
:1040280000BFFFFF70B500210400FFF741FF051E28
:1040380002D00E4D280070BD26000836300002F070
:1040480067F97F28F5D910342900200002F050F9CB
:104058000028EED0200002F05BF90128E9D93100F0
:10406800200002F0DCF90028E4DBE2E700BEFFFFF5
:10407800F0B50C0085B0002107001500FFF718FF08
:10408800002837D102A802F0B4F821007A6802A803
:1040980002F04AF9041E03D002A802F0AFF80CE0BF
:1040A8003C000834210002A802F0B9F9002807DB17
:1040B800042402A802F0A2F864420F4BE41816E0A8
:1040C8003A007E6802A9483723000800103200979A
:1040D800FFF706FD041EDFD13200290002A802F016
:1040E80038F9040002A802F089F8002CE5D1200074
:1040F80005B0F0BD014CFAE780BDFFFF80BFFFFFB0
:10410800F0B5030085B001292BD800291DD0164A27
:1041180016489446164A0290164F174E174D184CDB
:10412800184801926246039000209A64019A186424
:10413800DA65029A58641A66039ADF641E655D653B
:104148009C655A66996605B0F0BD0F4A0F489446BB
:104158000F4A02900F4F104E104D114C114801920A
:10416800E0E774204042EEE7D89E05C1A78FF964C6
:104178001115586807D57C3617DD703039590EF798
:10418800310BC0FFA44FFABE67E6096AABD9831F9B
:104198008C68059B85AE67BB72F36E3C3AF54FA5FC
:1041A8007F520E5119CDE05BF0B50700D5B04CAB8E
:1041B80048371A0005933B0068300991079002CBF5
:1041C80002C207999942FAD13826539B7642069340
:1041D800529B509D0193519B4C9C03934D9B029382
:1041E8004E9B04934F9B08930AABF6180023009349
:1041F800009B0F2B00D976E00999099A9B009A5CDD
:10420800CB185978D878090211439A780006120415
:104218000A43104302F0E5FA06232A00DA4129008E
:1042280013000B22D14119224B402900D141019A98
:104238004B40039930644A4001992A404A409B18F0
:10424800009A374992008A5821009B181818069B33
:104258002200C0180223DA4113000D22D141162290
:104268004B402100D1410A005A40029B0499234344
:104278000B400299043621400B430099D3180131B1
:1042880000910199089A0691049982180891009959
:10429800C01840291ED10B93019B0A905393039B8E
:1042A80051955293049B50924F93029B4D944E9379
:1042B8004C9005993B6804C99B1808C7079B059152
:1042C800BB42F6D194210AA84900FFF7CBFD002094
:1042D80055B0F0BD029B02940493039B0400039520
:1042E8000193150084E7B36B112118007268C84167
:1042F800944619001322D1419B0A4840584031681E
:10430800736A0C3A5B18C01863466146D3410B3296
:10431800D14162464B40D2085340C0187CE7C046A2
:10432800CC700010072330B5856885B0103D9D43DB
:10433800040000F0A3FF10220100684601F027F8EE
:1043480010226846064901F019F810236A46290028
:10435800200000F064FF431E984105B030BDC04600
:104368000A72001070B50C00816886B010231039ED
:1043780002AA050000F041FF002802DA012006B079
:1043880070BD1022280002A902F033FB0323002885
:1043980008D110221C4902A800F0E1FF03005A1EB0
:1043A800934101332370280002F00EFB6B46DE1D9B
:1043B800010001233200280000F01FFF0028DDDB88
:1043C8000F22337831001A401B096270280001223D
:1043D800237102F00EFB002802D16378042B03D965
:1043E80001236370002323710723AA682800183A61
:1043F8009A43083AA11C02F010FB0028BED12800FD
:10440800E11C02F060FBBAE70A720010F0B5264E14
:1044180087B04400C000805902A902F05CFB002864
:1044280035D1013404ADA4002900A05902F053FB92
:1044380001282AD103232B70EB70002602AB1B78CE
:104448002F781A4C01932078019902F0C3FA0028BA
:1044580023D03900607802F0BDFA00281DD0A37877
:10446800042B03D002AAD2789A4216D1E378042BFF
:1044780002D0EA789A4210D12379042B09D16079C5
:10448800831E022B03D807B0F0BD0028D5D0FF202B
:10449800F9E702AA92789A42F1D001360634032E3F
:1044A800D1D10120EFE7C046CC7100106C77001025
:1044B80070B5EFF3108572B6064B9C6802F04AFBA4
:1044C800002D02D162B6BFF36F8F2000FDF740FFC9
:1044D80070BDC046B01A002070B50A4E83009D59C1
:1044E800013084003359AB4200D870BD6B68002B93
:1044F80004D0280002F031FB0835F3E72B68984711
:10450800FAE7C046D4710010012270B5244B03208D
:1045180086B01A70FFF7E0FFFDF77EFE02F03DFB64
:104528000420FFF7D9FF1F4C26001F4DAC420ED3C5
:1045380000F0E6F9AE4220D300F0F2F9FCF730FBC8
:1045480001211A4A137B8B43137306B070BD636A4B
:104558000593236A0493E3690393A3690293636948
:10456800019323690093E368A2686168206800F0FA
:10457800B9F823685C653034D7E7B26AF36A511C2E
:1045880001D1591C05D011003068194303D100F03E
:1045980001FA3036CEE70649183000F089FBF8E713
:1045A800E23400201C6E00101C6E0010B0030020C6
:1045B800276C001010B5034A03480021121A02F0B4
:1045C800E4FA10BDE43400203003002070B57026F2
:1045D80001250400464301021148802209180020E1
:1045E80086B004950E350395053565430D4B05904A
:1045F800029001900C48F6182D180C4B30000095CD
:10460800520000F06FF80422737B2C749343737389
:104618000134074BE402E418EE606C6006B070BD2C
:10462800E83C002040030020B01A0020A56B0010D1
:10463800E8340020F0B5002087B0FFF74DFF204B8D
:1046480083F308881F49204B0A6A00251A40C023B3
:104658001B0413430B62FDF755FEFDF753FF1B4880
:1046680000F06CF802F064FA0120FFF735FF022031
:10467800FFF732FF00F084F9154C164BA0225C615D
:10468800154B164E059301231549049392013300E7
:104698002000039502950195009500F023F8042267
:1046A8000700637B20009343637302F091FA2800AC
:1046B800FFF78CFF320039002000FDF70BFFC046E2
:1046C800E83C002000ED00E0FFFF00FF2004002090
:1046D800B0030020B01A00207E77001011450010AA
:1046E800E83D00207FB504005830A065E0650C98CF
:1046F80000262073042060730B980732A0730820EB
:10470800404202408D180A9AA660E673A661E661E7
:104718000292099A20000192089A00922A00FDF755
:10472800C3FE054B66659B68B34200D05B6E2800EC
:10473800636604B070BDC046B01A00200223FF3380
:10474800838100234366014B98607047B01A0020AC
:104758000B21084A49429368D9669866802306491E
:104768005B05486803434B6062B6BFF36F8F93687D
:10477800D86E7047B01A002000ED00E00D2370B528
:10478800C356427B002B3ADBD30638D18369002B12
:1047980035D1803B13431C4C4373A3691B498B429F
:1047A8002ED1E269016042601060E06111E09A4236
:1047B800F8D01B68002BF5D00E250E2645579E57BE
:1047C800B542F4D0AE42F2DD5A6803604260106030
:1047D8005860A5698D4201D0002D00D1E568A36815
:1047E8005A7BD20605D1DA897F2A02D9AA69002A1A
:1047F80008D0AB4202D0280000F0A0F9656170BD76
:10480800E269D7E76361FAE7B01A0020C81A002006
:104818000D2270B582560400437B002A04DA7F22F9
:104828001340437302F0C1F98023627B5B42134358
:104838001B4D6373AB691B49EA698B4207D1216041
:1048480062601460EC6111E09A42F8D01B68002B9A
:10485800F5D00E200E2620569E57B042F4D0864240
:10486800F2DD5A682360626014605C60AE69AB6810
:104878008E4201D0002E00D1EE68A34208D05A7BA8
:10488800D20605D1DA897F2A02D9B269002A05D071
:10489800B34202D0300000F051F933006B6170BDB3
:1048A800B01A0020C81A002010B500290AD1EFF369
:1048B8000580002807D1064B9A685B699A4202D0A6
:1048C800FFF746FF10BD62B6BFF36F8FFAE7C04629
:1048D800B01A002010B500280AD1EFF3058000288F
:1048E80007D1064B5A699B689A4202D0FFF730FFFE
:1048F80010BD62B6BFF36F8FFAE7C046B01A00204A
:10490800EFF3108172B6054B9A68D37B013BD373E2
:10491800002902D162B6BFF36F8F7047B01A00202A
:1049280070B5EFF3108672B6134DAB68DA7B0132BF
:10493800DA73AC69114A944201D0002C00D1EC68BA
:104948005A7BD20605D1DA897F2A02D9A269002AC0
:1049580005D0A34202D0200000F0F0F823006B61DC
:10496800002E02D162B6BFF36F8FEFF3108072B6DC
:10497800FFF7B0FF70BDC046B01A0020C81A00206B
:10498800024B034A9A61DA617047C046B01A0020A8
:10499800C81A002070B50400183002F046F9EFF389
:1049A800108572B60422637B134205D1002D02D113
:1049B80062B6BFF36F8F70BD934320006373FFF738
:1049C800DDFEEFF30583002BF0D129000148FFF746
:1049D8006BFFF0E7E3340020014B98687047C0464E
:1049E800B01A0020F7B50400EFF3108672B6027B08
:1049F80001231100194001911A420BD0002E02D157
:104A080062B6BFF36F8F62B6BFF36F8F0423181CB3
:104A180002DFF7BD0823427B1A4205D0002EF8D1E9
:104A280062B6BFF36F8FF4E71900114348B200284C
:104A380039DB6173A368002B02D0200002F0BDF8B7
:104A480020002700183002F0F0F85837A56DAF4263
:104A580001D0002D2FD11E4FBA68944205D1EFF333
:104A68000583591E8B41DBB20193BD69194B9D42E9
:104A780001D0002D00D1FD68AA4202D0280000F024
:104A88005DF8019B7D61002B02D01348FFF756FEAD
:104A9800BB689C42C2D1EFF30583002BBED1300026
:104AA800FFF756FEB5E77F210A40134320006373E2
:104AB80002F07BF8BEE7280002F07FF828001830E3
:104AC80002F0B3F800232800EB66FFF757FEBDE7B6
:104AD800B01A0020C81A0020200400200121044B2D
:104AE800044AC01A044BC0104343D1547047C0460F
:104AF80090040020E3340020ABAAAAAAC2890300CC
:104B080000207F2A11D80A4A106800280DD00E21EB
:104B1800084A595612680020914206DB5A7BD20691
:104B280003D10548181A431E9841012318407047BD
:104B3800D81A0020D41A00204003002070B5182489
:104B48000C4B05001E7C0C4B7443E418200002F04B
:104B58006CF80022094B28009A55FFF7CFFF002870
:104B680007D0074B20001A680649013AD31700F00E
:104B78009FF870BDB01A002090040020E334002094
:104B8800D81A0020E54A001070B5EFF3108572B608
:104B9800104A114B94681868A04207D1FFF7CEFF5E
:104BA800002D02D162B6BFF36F8F70BD002119606E
:104BB800127C0A4B9B5C8B42F2D02000FFF79EFFD1
:104BC8000028EDD0637BDB0602D12000FFF720FE32
:104BD8002000E3E7B01A0020D01A0020E3340020B8
:104BE8000648074A10B5121A064901F0D2FF064ACC
:104BF80006480749121A01F0CCFF10BD000000203A
:104C08002C03002084770010000000200000002002
:104C180084770010024B1868984200D10020704732
:104C28006C000020002010B5034B1B68834201D1A3
:104C3800FEF7BAF910BDC046DC1A0020D0B5FFF760
:104C4800E9FF0400FFF7EEFF002C10D0226963692A
:104C58000600C717921BBB41002B08DC03D180213B
:104C680009068A4203D2D843C0171040D0BD014874
:104C7800FCE7C046FFFFFF7F30B500280ED00B4B86
:104C88005B6898420AD00168002907D00A694B6915
:104C98000469456912196B410A614B6103684268EE
:104CA80013605A6000230360436030BD6C0000202D
:104CB800F7B5040016001F00531C01D17B1C59D006
:104CC800A160EFF31083019372B6002F22DA7B1CE8
:104CD80001D1B31C1ED82C4B1868596802225242C5
:104CE800D317121A8B41921BBB41002B04DC01D154
:104CF800002A01D10122002322616361FFF78AFFA4
:104D08000700224D6E68002F0FD125606660346061
:104D18006C601CE0FFF786FF0122002392197B419B
:104D28000600C71792197B41E6E738697969226955
:104D38006369994202DC1ED190421CD9801A9941BC
:104D48007B6838617961636027601C607C60FFF76D
:104D580061FF844208D10E4B1C68002C04D1FFF778
:104D68006DFF2100FEF794F8019B002B02D162B67B
:104D7800BFF36F8FF7BD121A8B4122616361B7428F
:104D8800C3D03F68BFE7C046A80400206C000020DD
:104D9800DC1A0020F0B587B0EFF3108372B60193E8
:104DA8002E4B1860FFF736FF2D4F04003A687B68DA
:104DB80002920393294B9C461D6800280FD0426934
:104DC8000669EB179A4202DC23D1AE4221D91900B9
:104DD800226963692800121A8B4122616361029873
:104DE80003992A00EB1712184B4100243A607B60A4
:104DF80063461C60FFF722FF2100FEF749F8019B7C
:104E0800A34202D162B6BFF36F8FFFF7BDFE07B0B2
:104E1800F0BDF31704960593049A059B029803992D
:104E280080185941002300220D4D226163612860DA
:104E380069602000FFF720FF019B002B02D162B6BA
:104E4800BFF36F8F2000A3689847EFF3108372B603
:104E5800024A019313689B1B1360A3E7DC1A002026
:104E6800A804002070470078704730B583680400B4
:104E7800150085B08B420FD96368C068C91801AAAC
:104E880000F048FB002805D16268019B9B1A2B6043
:104E9800029B6B6005B030BD22204042FAE7002833
:104EA8000AD00368002B07D04368002B04D0C068E1
:104EB80081428041404270470120FBE710B500F075
:104EC8004EFA10BD70B50D00040001F07DFD010023
:104ED8002A0004232000083900F08FF970BD13B5AB
:104EE8000400019101F070FD01000423200008393D
:104EF80001AA01F0ADFD16BD70B513000C00160037
:104F0800002102000500FCF7EBFC00280CD12A0068
:104F18003300012128002C32FCF7E2FC002803D0E2
:104F2800631E9C416442204070BD73B5F326426AFB
:104F3800040001A90320019600F0C9F90125002801
:104F48000AD1019B226DA36201A90430019600F0E9
:104F5800BEF9051E02D00925280076BD019B206AEE
:104F6800636500F084F9E065F6E742790300002004
:104F7800012A06D11A68012A03D118790138434257
:104F880058417047F0B585B006000D00032001A90F
:104F9800FDF700F90124002823D10198FCF746F910
:104FA800F16D0400280000F0CAF82418019800F0F8
:104FB8005EF90700019800F061F902AE01000822CD
:104FC800300000F0E4F92B792100337032003B0007
:104FD800019800F024F9431E98410400019800F05C
:104FE8000BF9200005B0F0BD10B500F02AF910BD8E
:104FF800F7B50E00002107000800FBF715FE012198
:1050080004000020FBF710FE3278030094421FD002
:10501800012093421BD12C244443F86D3C19A56A06
:10502800FCF7E6F80027013D0190626AEB00D3180F
:1050380059683000009119681368009AC91AFFF777
:10504800D3FF009B013DFF18019B9F42EDD3FEBD9E
:105058000020E0E737B515000C000420694601F090
:105068003AFDE979012903D00022200001F046FD2C
:105078006B46DB78012B02D1200001F01BFDA968EB
:105088002000FFF72CFF2000FFF74CF900203EBD61
:1050980073B50D00060000F064F8041EE8602ED019
:1050A800022830D1032001A9FDF774F8013C00283B
:1050B80025D12A0031000198FCF782FC041E1BD17F
:1050C800019801F081FC6A4601000123019803322E
:1050D80000F093F8041E14D16B4601220198D91CE4
:1050E80001F087FC002802D001236A46D3706B4682
:1050F8000F22DB781340EB71019800F07DF8200057
:1051080076BD0124F8E70724F9E770B5436A04007F
:10511800C06D5D68FCF76CF82B000200A06A0138CE
:105128009A4202D901385B19FAE770BD436A002038
:105138005A6803009B1801308B42FBD3704710B5A7
:1051480044790B000022012C02D0F3324A434B0071
:105158000479013C614389180268013A5343C8182D
:1051680010BD1FB50320694602AC01F0B4FC210054
:10517800042001F0B0FC6B461B780020012B08D1FD
:105188006B469B78032B04D120780138431E984145
:10519800400004B010BD10B5036A0400D8688368E5
:1051A800DB689847E36CD8688368DB689847012018
:1051B80010BD002070470FB407B504A901C90191BB
:1051C800FCF7F2FD03B008BC04B0184710B50400A2
:1051D800080011001A00A047FFF7FEFBFDF7B8F81A
:1051E80070470FB407B504A901C90191FCF7DCFDAC
:1051F80003B008BC04B01847704770B50400002914
:105208000ADBA568C818A84206D8E06864680919C6
:1052180084682468A04770BD16204042FBE770B53B
:10522800040000290ADBA568C818A84206D8E06867
:105238006468091984686468A04770BD16204042F4
:10524800FBE7030010B500290CDB9C688818A04216
:1052580008D8D8685B68C91883689B68002B04D095
:10526800984710BD16204042FBE75820FBE710B5D1
:10527800C0688368DB689847006810BD10B5C068CF
:105288008368DB689847407910BD70B54D6803683E
:10529800AB4201D2012070BD8A68AA18934201D39B
:1052A8000020F8E70C694E69CA68B44203D30C239E
:1052B8005B428B61F4E75B1BE400A3500B69406819
:1052C800DB00D21850600B6901330B61E2E737B598
:1052D8000C00C0B201A91500FCF75CFF00280CDB2C
:1052E8000198002809D021002A00FCF779FF040062
:1052F8000198FFF781FF20003EBD16246442FAE7BB
:1053080010B5012801D1EFF30583FFF7D1F810BDDF
:1053180010B501000068FFF7F3FF10BD10B5FCF7EA
:1053280087FFFCF787FF10BD10B500210120FFF7AC
:10533800E7FF10BD002802D162B6BFF36F8F704738
:10534800BFF34F8F30BF62B6BFF36F8F7047030054
:1053580000201A5C002A00D170470130F9E730B507
:105368000500101E09D00024013A2B5D085DA242F9
:1053780002D001348342F8D0181A30BD002310B58A
:105388009A4200D110BDCC5CC4540133F8E7030045
:10539800C9B28218934200D1704719700133F9E7F6
:1053A800012040427047030001200A1FD2B200B515
:1053B80082420DD90E290AD80800FAF7FBFE0A0A1C
:1053C8000A0A08080A0A0A0A11111D2121000020E8
:1053D80000BD1A680C234B4398580005C00FF7E727
:1053E8000A2907D19B685868292318404342584125
:1053F800C0B2EDE7DB68F6E75B685868C004EDE724
:105408000120E5E749B2030010B5EA20102904DCC1
:105418005868FFF7C8FF0130C0B210BD49B210B5D7
:105428001400102906DCFDF747F9FBF7B5FA2060F0
:10543800002010BD16204042FBE70123F0B507000D
:10544800002587B05B42039101900293039B9D4224
:1054580024D22E006C003C190123029AE356934291
:105468000FD16B00F818FB56022204930123C35690
:1054780021000593FFF782FF049B01352370059BEC
:105488006370039B01360234B342E5D1019B1B785C
:105498005BB20293019B02330193D7E707B0F0BDDB
:1054A800F0B51C00002387B0039282682360A360D4
:1054B8005369029105AA04A99847059B5A1E0592AB
:1054C800002B03D11620404207B0F0BDA368049E0C
:1054D80001937568029B27686560002B12D1039BB6
:1054E800019A981A3368834200D903005D43019AF0
:1054F800ED199A182560A26032689A4208D80836D1
:105508000496DAE7029B2900D81BFAF767FEE9E759
:105518000020D9E710B513000022FFF7C1FF10BD26
:10552800F0B50024260083688BB0029103925B6972
:1055380006AA05A998470194069BB34201D80BB067
:10554800F0BD059FF300FF187B68019D0893019B40
:105558003A68EB1A9A4202D801360195ECE70399AA
:10556800029B0794099507A898470028E7D0089B4D
:105578000135E418EBE7080010B5111E14D0002817
:1055880014DB13188022920393420FD80B000343B5
:105598001B050BD1EFF3108472B601F075FB002CDC
:1055A80002D162B6BFF36F8F002010BD16204042B3
:1055B800FBE7100010B51A1E0BD000290BDB802466
:1055C800CB18A403A34206D880235B05C918FFF7AC
:1055D800D5FE002010BD16204042FBE7D0231B0655
:1055E8005B6800200B6070470A0010B50369100063
:1055F800196988430100D020000641611C69596976
:1056080021401140816219695B69114099434162E7
:10561800002010BD0A0010B50369100019698843FD
:105628000100D020000681611C69596921401140A0
:10563800416219695B69114099438162002010BD7C
:10564800036908001A699043D0221206D0611B69C9
:1056580000200B40D362704710B5036958680028D2
:1056680021D088421BD108689C685860A14200D1AB
:10567800986000200860824206D05A680A609A68DA
:105688005960002A00D19960002010E0814206D1BB
:105698000868206098688142EBD19C60E9E70400C3
:1056A80000680028F2D1002AE7D11620404210BD38
:1056B80010B543685B689847002010BDF7B50D002A
:1056C800076916000F21002228001C00FDF7CEFDF7
:1056D80001221300AB40019380239B039E4205D116
:1056E800FB68019A93430020FB60FEBD8023610E96
:1056F800DB0423401140F6010DD58900002B01D0B1
:105708000823194301222800FDF7B0FDFB68019A20
:105718001A431300E7E7002BF4D00223F1E710B592
:10572800002203210D20FCF77FFE0D20FCF770FE00
:1057380010BD30B50469D0200006036925695340BF
:105748000B40AB430D00C361036A53409D432B00DC
:1057580025691D4063692B40C362036A5A400A40A9
:105768002169636911409943C162002030BDF8B5D1
:1057780015000F0001245209290906692140380043
:105788002240FDF715FD05213800FDF7F9FCAB03B4
:1057980025D5BC403269A90715D522433261D022EC
:1057A80071691206680707D52143716194616D0319
:1057B80007D554620020F8BDA143716154612D03DF
:1057C800F7D49462F6E7A2433261D0221206290385
:1057D80001D55461EDE76D03EBD59461E9E7ED037D
:1057E800E8D5D022BC401206EBE730B50368136059
:1057F80005790468ED006419A34202D302204042EF
:1058080030BD5C798C4201D00833F0E70020F7E71F
:10581800F8B5040001268D004519AC4201D10020DD
:10582800F8BD2078271DC006C00E00F0DEF92188DB
:1058380020788905C006C90EC00EFDF7A1FCA27824
:1058480020786178D207C006D20FC909C00EFDF7CB
:10585800AFFC617820788906C006090FC00EFDF7F5
:10586800E9FC617820788909C0063140C00EFDF74F
:10587800D1FCA17820784907C006C90FC00EFDF7F2
:10588800BBFCA17820788907C006C90FC00EFDF7B8
:105898000FFDA1782078C906C006890FC00EFDF754
:1058A80099FC3C00B9E7002070478368007902281A
:1058B80009D004280BD001280CD1C9180B78DBB209
:1058C800002013607047C9180B889BB2F8E7C91805
:1058D8000B68F5E716204042F4E70300F0B585B001
:1058E8005F6801923E790800F100FAF7B3FC03AA59
:1058F80004000D0081B23800FFF7D7FF002817D148
:1059080001220399EDB2AA400B00944693437D7996
:10591800019A954201D063460B43BA68022E09D01A
:10592800042E0CD0012E0ED1A4B2DBB2A418237021
:1059380005B0F0BDA4B29BB2A4182380F8E7A4B2C6
:10594800A4182360F4E716204042F1E710B50122BD
:10595800FFF7C3FF10BD10B50022FFF7BEFF10BD53
:1059680070B504000D00FFF7F1FF002803D12900EE
:105978002000FFF7F0FF70BD030073B55E680800F4
:1059880031791400C900FAF765FC01AA0D0081B24B
:105998003000FFF78AFF002809D1019BEDB2EB40E8
:1059A80001229A43737959424B415340237076BD83
:1059B80002694368127A1B68002A05D11A6BD2075C
:1059C8000DD51A6B92050AD59A69D20607D41B68B9
:1059D8000B7043681B6858680F23184070470120F4
:1059E8004042FBE7202243681B6898691042FCD1BB
:1059F8001960704743681B6858685A680007C00FE9
:105A0800520701D50822104302225968114200D0DA
:105A180010435B68DB0701D504231843704710B5B2
:105A2800036911CB11C1002010BD030070B500201F
:105A380020265C682468A569354202D1151A002D14
:105A480000DC70BD0D5C01302560F2E7030070B525
:105A580000201025141A002C04DD5C682468A6694F
:105A68002E4200D070BD24680C540130F2E710B506
:105A7800436804691A682023916B0B439363237C62
:105A8800002B06D06369002B01D0A1699847002339
:105A9800237410BD202143681A68936B8B4393636A
:105AA8007047436801201B689B69DB08984370476F
:105AB80002694368127A1B68002A06D1196B013201
:105AC8000800FF32104011420BD02022996B0020B1
